:020000040000FA
:10000000800220206D0100007101000073010000DA
:1000100000000000000000000000000000000000E0
:10002000000000000000000000000000750100005A
:1000300000000000000000007701000079010000CE
:100040007B010000990C00007B0100007B01000097
:100050007B0100007B0100007B0100007B010000B0
:10006000000000007B0100007B0100000000000098
:10007000000000007B0100009911000079110000D0
:100080007B0100007B0100007B0100007B01000080
:100090006D1100007B010000000000000000000066
:1000A0007B0100007B010000000000000000000058
:1000B0007B010000000000007B0100007B010000CC
:1000C00000F002F800F042F812A030C808382418F6
:1000D0002D18AC4201D100F039F80FCCA246AB4646
:1000E0000CA730CF2D1B083F3F197C427F1E544484
:1000F0002D090426F441641EAC4201D300F026F819
:100100000126334200D0FB1A3343984754465D46DC
:10011000DFE70000EC130000FC130000000000000B
:100120007047000000000000002300240025002686
:10013000103A01D378C1FBD8520700D330C100D5A3
:100140000B6070471FB51FBD10B510BD00F01FF943
:100150001146FFF7F7FF01F063F800F037F903B439
:10016000FFF7F2FF03BC00F03DF90000064800472E
:10017000FEE7FEE7FEE7FEE7FEE7FEE70348044989
:10018000024A044B70470000C1000000800120209B
:1001900080022020800120207047704770470000B7
:1001A000F0B5FF252D04C609C209FF2704462E40DD
:1001B0000137CB093E4348402A402B400746002ADE
:1001C0006BD0002B69D0AA4267D0AB4265D0002823
:1001D00000DA32460125ED0529432C4309022002AD
:1001E000090AD21A4B0C7F24E31A434C000A7C44C0
:1001F000E35C7D242404121914145B00A2188842C5
:1002000001D3521C00E0400049420C465C432411DB
:100210005C43DB016415E318040A5C43C502200D4E
:100220000C4644436419250A5D432303EC0C0D4638
:10023000654300030019EB184C42A34201D35B183D
:10024000401CD4052018002B07D05B00C91804D32C
:10025000401C002901D1400840003F2189048A4206
:1002600009D3002A08DC1106090F04D0032149072D
:100270004018C00FC007F0BD0122410012068918C6
:100280007F2252069142F6D205214907C84201D584
:100290009010F0BDFF20C005F0BD002F00DA3246FF
:1002A0001648AA4207D2AB4205D21902090E17D04E
:1002B000F80FC007F0BDFF2563002D06AB42F9D84B
:1002C0004900A942F6D8AB4201D1A942F2D0A942D5
:1002D00001D1002101E061004908D0050843F0BDCB
:1002E0001102090EFBD0FF200243D005F0BD0A46E3
:1002F0000146104654E700007E1200000000C07F57
:100300000102C21504D00123DB071943002A0ADBCE
:100310009E239A1A02D40846D0407047FF2241001B
:100320001206914201D900207047C017C0437047A0
:100330001F22030C02D10F2200041CD0030E01D196
:100340000002083A030F01D10001121F830F01D1EF
:100350008000921E002801DB4000521ED205511879
:10036000021251181922904004D3491C002801D1CF
:100370004908490008467047C10FC90700D04042EC
:10038000012292071143D3E701218907D0E775467F
:1003900000F024F8AE46050069465346C008C00088
:1003A000854618B020B5FFF7E9FE60BCB6460026CA
:1003B0000027C0C5C0C5C0C5C0C5C0C5C0C5C0C573
:1003C000C0C5403D490849008D46704710B50446F8
:1003D000C046C0462046FFF7C2FE10BD0048704729
:1003E0000000202001491820ABBEFEE726000200D5
:1003F0007047811E091F00BFFCD2704784B0039074
:100400000291019203980068009000980199884336
:10041000009000980299019A1140084303990860DE
:1004200004B0704782B001900091009B0199094A85
:1004300088581843885002B07047C04682B0019077
:100440000091009B0199034A88581843885002B0D4
:100450007047C0464810000082B00190009100989B
:10046000019995225201885002B0704782B00190E4
:1004700000910098019995225201885002B070476E
:1004800082B0019000910098019995225201885004
:1004900002B0704781B00090009881003F4A8858B0
:1004A00001235B061843885001B0704782B0019069
:1004B0000091009B0199D64A88581843885002B091
:1004C0007047C04682B00190009100980199024A9D
:1004D000885002B07047C046D012000081B0009032
:1004E00000990120C202D048885001B07047C04630
:1004F00082B001900091019802494058009908404B
:1005000002B070473810000081B000900098810060
:10051000224A0248885001B07047C046810004005A
:1005200081B00090009881001C4A8120885001B061
:100530007047C04682B0019000910098104908436E
:1005400001998900154A885002B0704710B584B0EF
:10055000079C069C039002910192009302980199D6
:10056000084300990843069908430799084304493A
:10057000084303998900094A885004B010BDC04659
:100580008000040082B0019000910098802108430F
:1005900001998900014A885002B0704704804240A6
:1005A00082B00190009101982721C901405800991B
:1005B000084002B07047000081B000900099344AB2
:1005C0003448885001B0704782B001900091009B80
:1005D0000199034A88581843885002B07047C046B2
:1005E0009013000082B00190009100980199074A91
:1005F000885002B07047C04682B0019000910098C8
:100600000199024A885002B07047C046901200001B
:1006100082B001900091009B01999D204201885871
:100620001843885002B0704781B0009000990920AB
:100630004202885801231B021843885001B07047BA
:1006400081B000900099084A8858012318438850C7
:1006500001B0704781B000900099034A8858042384
:100660001843885001B070472812000081B00090F4
:1006700000990120C2026C48885001B07047C04602
:1006800081B000900099D84AD848885001B070478E
:1006900004080000030000B181B000900099024AF4
:1006A0000020885001B070471412000080B584B05B
:1006B000019101460198039102A90880039809223B
:1006C00052028018098803225202FFF797FE04B0F5
:1006D00080BD70B50A780C231A4001242403051943
:1006E0006E689E43B2186A60497807221140035928
:1006F00093435918015170BD80B584B001910146F2
:100700000198039102A9088003980D4A801809886E
:1007100007221202FFF772FE04B080BD80B584B0DC
:10072000019101460198039102A908700398044AB7
:10073000801809780722FFF761FE04B080BDC0462B
:100740003812000082B0019068460170007801996B
:10075000014A885002B07047241200000649086818
:100760000122904308607047034908680122120281
:10077000904308607047C04608010B4081B00146B5
:100780006846017000780249086001B07047C046B1
:1007900008030B4080B582B0014601A801700178C2
:1007A0000F480F22FFF72AFE02B080BD80B582B04D
:1007B000014601A80170017802480322FFF71EFEDE
:1007C00002B080BD00010B4080B582B0014601A897
:1007D0000170017802483022FFF710FE02B080BDA0
:1007E00004010B4081B000900099024A012088501A
:1007F00001B070470811000082B001900091009B89
:100800000199AA4A88581843885002B07047C046D8
:100810002810000081B0009000990120C202A94870
:10082000885001B07047C04601000026F0B5924ADA
:100830008218294BC318087920280DD000281DD113
:100840000C68641E5460D56E244C25408835D566EE
:100850001646703688251DE00C68641E5460D46E00
:100860001E4D2C401E4EA419D466146F2C40A419A2
:100870001467012465071B4C16460BE00C686408DE
:100880005460D66E154C26400525ED017619D666C6
:1008900016467036376827402F433760D46A4D4D6F
:1008A0002C40D462146B2C4014630024D46414656F
:1008B0008F24E443D56F2540D5671D6825401D6012
:1008C00049790143BD2008401168074B0B40C0180F
:1008D000801C1060F0BDC0468418000024493E0012
:1008E00001040000FFFFFFCF4000FFCFB0B54A6812
:1008F000364BC250604A80180A78222A58D8930092
:1009000001A4E3589F46C046A7090000B1090000B2
:10091000A7090000B1090000B1090000B1090000F9
:10092000B1090000B1090000B1090000B1090000DF
:10093000B1090000B1090000B1090000B1090000CF
:10094000B1090000B109000095090000B1090000DB
:1009500095090000B1090000B1090000B1090000CB
:10096000B1090000B1090000B1090000B10900009F
:10097000B1090000B1090000B1090000B10900008F
:10098000B1090000B109000095090000B10900009B
:100990009509000003231B0704689C4301235B07A0
:1009A000E318036004E003231B0704689C4304600E
:1009B0000B69C360CB68064C1C40C36A054D1D40E3
:1009C0002B19C362097A11430160B0BD08180000F9
:1009D000777702008888FDFF81B000900099554A22
:1009E0005548885001B0704704080000030000B16A
:1009F00082B0019000910098019911221202885052
:100A000002B0704710B507239B041940920080186C
:100A1000024A84589C436118815010BD3018000070
:100A200010B5029CA400001911431943014A8150DA
:100A300010BDC0465018000092008018014A815035
:100A40007047C0461018000010B501221203831829
:100A50000C789C604B7883508978014A815010BD96
:100A60000C11000081B000900099034A88580123BE
:100A70001843885001B070470418000081B00090FE
:100A8000009911200202885801231843885001B0B0
:100A90007047000082B001900091009B0199034AC9
:100AA00088581843885002B07047C046281000008C
:100AB00081B0009000990120C2020248885001B024
:100AC0007047C04601000026B0B5112212028358BB
:100AD0000124A34383500B888C781C438B882343C9
:100AE000094C1C408358094D1D40631983508B7974
:100AF000CC791C43097A21437E231940801842682F
:100B00009A4351184160B0BD18670000E798FDFF97
:100B100081B00090009802494058C0B201B07047BF
:100B20002411000081B000900099024A02488850C8
:100B300001B0704704080000030000B180B584B024
:100B400003900291019203980B49401802990B4AB5
:100B5000FFF754FC03980A49401801993F22FFF718
:100B60004DFC0399074A8818895801221140FFF764
:100B700045FC04B080BDC04610110000FFFF00001E
:100B8000141100000411000010B501221203831893
:100B90000C789C604978815010BD80B582B001907E
:100BA0000091019811210902401800990322D203F3
:100BB000FFF724FC02B080BD82B00190684601704E
:100BC0000078019989225201885002B070470000D4
:100BD00082B001A908702B480078002809D1FFE7EE
:100BE00001A80078AA2804D1FFE72649012008704F
:100BF00045E02448007801280CD1FFE701A80078DF
:100C0000BB2807D1FFE71F49022008701E490020BA
:100C1000087033E01B48007802282AD1FFE70199C9
:100C2000194803785A1C0270184AD15400780828D1
:100C30001EDBFFE713490020087014490091087873
:100C400000064A78120480188A7812028018CA783E
:100C500080180F4A1060087900064A79120480183B
:100C60008A7912028018C97940180A490860FFE79A
:100C700003E0044900200870FFE7FFE7FFE702B048
:100C80007047C0466F0020206E00202064002020A6
:100C9000700120207401202080B571487349FFF74E
:100CA00027FC1B4908700020002813D0FFE7012013
:100CB00041046B48FFF774FC002805D1FFE7164993
:100CC0000868401E086004E013490868401C08607A
:100CD000FFE717E00020002813D0FFE70120010202
:100CE0005F48FFF75DFC002805D1FFE70949086868
:100CF000401C086004E007490868401E0860FFE7E0
:100D0000FFE7FFE756485949FFF798FB80BDC0460B
:100D10006C012020780020207400202080B58CB049
:100D20002D200621FFF72EFC0120099041054C489B
:100D30000790FFF7C7FB2E200821FFF723FC079839
:100D400009998905FFF7BEFB212004210691FFF7D1
:100D500019FC079809990903FFF7B4FB2220052124
:100D6000FFF710FC079809994903FFF7ABFB002335
:100D70000493019300930321039118461A46FFF749
:100D8000E5FB0399049B0998019300931A46FFF72A
:100D9000DDFB0498FFF77EFB0998FFF77BFB2A2019
:100DA00002210591FFF7EEFB05992020FFF7C2FB1A
:100DB00005991420FFF7E6FB05991520FFF7BAFB0C
:100DC0002520FFF7ADFB3620FFF7AAFB3A20FFF7FF
:100DD000A7FB3420FFF7A4FB3320FFF7A1FB35204E
:100DE000FFF79EFB1820FFF78FFB1720FFF78CFB08
:100DF0001F20FFF789FB2620FFF786FB1220FFF755
:100E000083FB0D20FFF78CFB07981649FFF72EFB9D
:100E100007988021FFF7E6FB07981349FFF752FB7D
:100E2000079809990904FFF7CFFB06990798FFF780
:100E3000EFFB07980D490891FFF7F4FA0798089916
:100E4000FFF734FB099801060B91C6480A90FFF79B
:100E50000DFB0A980B99FFF735FB0CB080BDC0461F
:100E600000000A40000081078000810700010200A5
:100E700080B582B01249BC480190FFF72AFC019866
:100E800003214902FFF712FC0198FFF7CDFB0198FF
:100E9000FFF702FC01980721FFF754FC019800219D
:100EA0000091FFF73BFC00990198FFF725FC0198A2
:100EB000FFF7D0FB0198FFF7C3FB02B080BDC0462F
:100EC000B014000080B584B01B49E9480390FFF7D7
:100ED000BBFD03981949FFF7A9FC03980023019370
:100EE000009319461A46FFF79BFD019A0398114695
:100EF000FFF788FD019A03981146FFF79DFD019BBE
:100F0000039801210291009119461A46FFF788FDC6
:100F10000199029A0398FFF775FD0199029A0398C7
:100F2000FFF78AFD0398FFF75DFC03980321FFF7A5
:100F30005FFD04B080BDC046B2140000B8140000CC
:100F400080B586B01C49C9480590FFF77DFD05981E
:100F50001A49FFF76BFC059800230293009319468A
:100F60001A46FFF75DFD029A05981146FFF74AFD04
:100F7000029A05987D2109010391FFF75DFD029B0F
:100F8000059801210491009119461A46FFF748FD82
:100F90000299049A0598FFF735FD0399049A05987C
:100FA000FFF74AFD0598FFF71DFC05980321FFF7A1
:100FB0001FFD06B080BDC046C0140000C414000070
:100FC00080B582B000200190FFF7D8FB0198FFF7B1
:100FD000EDFBFFF7C3FBFFF7C7FB0198FFF7F4FB3F
:100FE0000198FFF7D7FB02B080BD704780B582B093
:100FF0000849A0480190FFF727FD01980649FFF72F
:1010000075FC01980121FFF7F7FB0198FFF7EAFB58
:1010100002B080BDCC140000D014000080B582B0B6
:101020000D4967480190FFF7AFFD01980B49FFF7A5
:101030004BFD01980021FFF7B0FD0198D02115224A
:10104000FFF77CFD019801218902FFF723FD01983C
:10105000FFF714FD02B080BDE4140000E6140000A8
:1010600080B582B00D494A480190FFF78DFD019887
:101070000B49FFF729FD01980021FFF78EFD01982C
:1010800011211722FFF75AFD019801218902FFF76C
:1010900001FD0198FFF7F2FC02B080BDF0140000E2
:1010A000F214000080B500F01DF8FFF737FEFFF7DF
:1010B00087FFFFF745FFFFF705FFFFF797FFFFF7F4
:1010C000D7FEFFF7ABFFFFF7CBFFFFF78EFF03491C
:1010D0007422002088540249885480BD7C0020205E
:1010E000F400202080B588B093480090FFF764FAA0
:1010F00092480190FFF760FA5C480290FFF76CFCA1
:10110000AE480390FFF768FC5A480490FFF764FC70
:1011100015480590FFF7B4FA29480690FFF702FD3D
:101120001B480790FFF7FEFC0098FFF7D7F90198DE
:10113000FFF7D4F90298FFF76DFB0398FFF76AFBFE
:101140000498FFF767FB0598FFF790FA0698FFF7FA
:10115000AFFC0798FFF7ACFC1020FFF74AF908B086
:1011600080BDC04600200A4000000F4080B501202D
:10117000032100F081F880BD80B50548FFF7C8FC69
:101180000146044801700078FFF722FD80BDC0468B
:10119000008010407100202080B582B00848019086
:1011A000FFF7B6FC0246019806490A700978FFF776
:1011B00003FD01980121FFF7FFFC02B080BDC0468E
:1011C000002010407000202081B001466846017068
:1011D00000214056002809D4FFE7684601781F2007
:1011E00001400120884002490860FFE701B07047D4
:1011F00080E200E081B0014668460170002140565F
:10120000002809D4FFE7684601781F20014001202B
:10121000884002490860FFE701B0704700E100E044
:1012200080B582B000200190FFF73CFF0E200090B7
:10123000FFF7CAFF1420FFF7DDFF0098FFF7DAFF82
:101240000F20FFF7D7FF0120FFF7D4FF0748FFF774
:1012500009FC5A48FFF706FC0648FFF703FCFFE7C6
:1012600035488021FFF7F8F8FAE7C046008086404D
:101270000040084000A0864080B586B005AA1070E6
:1012800004A8017001200190010603912A480290F0
:10129000FFF7B2F9019902984906FFF7F1F80199B1
:1012A00002988906FFF7A8F901990298C905FFF786
:1012B000E7F803992148FFF79FF9214800680128C2
:1012C0000ADBFFE71F49002008601D480068FFF7A0
:1012D00053F81E49086022E01948006800280BD521
:1012E000FFE7174800684042FFF746F815490860D5
:1012F00016490020086011E011480068002806D156
:10130000FFE71049124808601049086005E00D49E0
:101310000D4808600D490860FFE7FFE7FFE709484F
:101320000068012100F016F808480068002100F06C
:1013300011F806B080BDC04600000A4000200A40F7
:101340007401202078012020000070417C012020C1
:101350000000204180B584B0039002A80190017084
:101360000398134900F02CF81249FEF719FFFEF715
:10137000C7FF01460198104A11600078002807D184
:10138000FFE70D4801680D480022FFF755FB0CE010
:1013900002A80078012807D1FFE70748016807483D
:1013A0000122FFF749FBFFE7FFE704B080BDC0461D
:1013B00000F047450000C84260002020004008407F
:1013C00070B5420064414B005C41120E39D01B0ED7
:1013D00038D0FF2A3CD0FF2B3AD0D2187F3A4002B7
:1013E0004902400A490A4518ED0106004E43000A29
:1013F000090A48430104731A4019190C4318990F3C
:1014000004D05B08012149075B1A521CD80904D398
:10141000401CF50301D19D0607D0FF2A08D2D5054F
:1014200006D0E4072043401970BD0125A843F4E726
:10143000002A01DCE00770BD2402FF202043C00524
:1014400070BD1B0EFF2A03D0FF2B01D0E00770BD3B
:10145000FF2636064500B54206D84D00B54203D8F2
:10146000D218FF2A00D0E7E7004870BD0000C07F17
:101470008182838485868788898B8C8D8E8F9192DB
:1014800093959697999A9C9D9FA0A2A3A5A7A8AA79
:10149000ACAEB0B2B3B5B7B9BCBEC0C2C5C7C9CC9B
:1014A000CED1D4D7D9DCDFE2E6E9ECF0F3F7FAFEEF
:1014B0000800080000000000800C00002000000070
:1014C00008072700D00700000000000008071F00E1
:1014D00002000000E1040000010000000000000024
:1014E00000000000080000001800000000300000AC
:1014F000080000001800000000300000000000009C
:1015000010150000000020208002000028010000CB
:04000005000000C136
:00000001FF
